{
  "_format": "hh-sol-artifact-1",
  "contractName": "Test",
  "sourceName": "contracts/contract.sol",
  "abi": [
    {
      "inputs": [
        {
          "internalType": "string",
          "name": "_string",
          "type": "string"
        },
        {
          "internalType": "uint256",
          "name": "_uintData",
          "type": "uint256"
        }
      ],
      "name": "StoreString",
      "outputs": [],
      "stateMutability": "nonpayable",
      "type": "function"
    },
    {
      "inputs": [
        {
          "internalType": "address",
          "name": "checkOf",
          "type": "address"
        }
      ],
      "name": "getStoredString",
      "outputs": [
        {
          "internalType": "string",
          "name": "",
          "type": "string"
        }
      ],
      "stateMutability": "view",
      "type": "function"
    },
    {
      "inputs": [
        {
          "internalType": "address",
          "name": "Of",
          "type": "address"
        }
      ],
      "name": "getStoredUint",
      "outputs": [
        {
          "internalType": "uint256",
          "name": "",
          "type": "uint256"
        }
      ],
      "stateMutability": "view",
      "type": "function"
    }
  ],
  "bytecode": "0x608060405234801561001057600080fd5b506106f1806100206000396000f3fe608060405234801561001057600080fd5b50600436106100415760003560e01c8063018b4751146100465780638d1487d114610062578063f2b5f4b414610092575b600080fd5b610060600480360381019061005b9190610418565b6100c2565b005b61007c600480360381019061007791906103ef565b61019c565b60405161008991906104d6565b60405180910390f35b6100ac60048036038101906100a791906103ef565b6101e7565b6040516100b991906104b4565b60405180910390f35b600073ffffffffffffffffffffffffffffffffffffffff163373ffffffffffffffffffffffffffffffffffffffff1614156100fc57600080fd5b816000803373ffffffffffffffffffffffffffffffffffffffff1673ffffffffffffffffffffffffffffffffffffffff16815260200190815260200160002060000190805190602001906101519291906102ba565b50806000803373ffffffffffffffffffffffffffffffffffffffff1673ffffffffffffffffffffffffffffffffffffffff168152602001908152602001600020600101819055505050565b60008060008373ffffffffffffffffffffffffffffffffffffffff1673ffffffffffffffffffffffffffffffffffffffff168152602001908152602001600020600101549050919050565b60606000808373ffffffffffffffffffffffffffffffffffffffff1673ffffffffffffffffffffffffffffffffffffffff1681526020019081526020016000206000018054610235906105ec565b80601f0160208091040260200160405190810160405280929190818152602001828054610261906105ec565b80156102ae5780601f10610283576101008083540402835291602001916102ae565b820191906000526020600020905b81548152906001019060200180831161029157829003601f168201915b50505050509050919050565b8280546102c6906105ec565b90600052602060002090601f0160209004810192826102e8576000855561032f565b82601f1061030157805160ff191683800117855561032f565b8280016001018555821561032f579182015b8281111561032e578251825591602001919060010190610313565b5b50905061033c9190610340565b5090565b5b80821115610359576000816000905550600101610341565b5090565b600061037061036b84610522565b6104f1565b90508281526020810184848401111561038857600080fd5b6103938482856105aa565b509392505050565b6000813590506103aa8161068d565b92915050565b600082601f8301126103c157600080fd5b81356103d184826020860161035d565b91505092915050565b6000813590506103e9816106a4565b92915050565b60006020828403121561040157600080fd5b600061040f8482850161039b565b91505092915050565b6000806040838503121561042b57600080fd5b600083013567ffffffffffffffff81111561044557600080fd5b610451858286016103b0565b9250506020610462858286016103da565b9150509250929050565b600061047782610552565b610481818561055d565b93506104918185602086016105b9565b61049a8161067c565b840191505092915050565b6104ae816105a0565b82525050565b600060208201905081810360008301526104ce818461046c565b905092915050565b60006020820190506104eb60008301846104a5565b92915050565b6000604051905081810181811067ffffffffffffffff821117156105185761051761064d565b5b8060405250919050565b600067ffffffffffffffff82111561053d5761053c61064d565b5b601f19601f8301169050602081019050919050565b600081519050919050565b600082825260208201905092915050565b600061057982610580565b9050919050565b600073ffffffffffffffffffffffffffffffffffffffff82169050919050565b6000819050919050565b82818337600083830152505050565b60005b838110156105d75780820151818401526020810190506105bc565b838111156105e6576000848401525b50505050565b6000600282049050600182168061060457607f821691505b602082108114156106185761061761061e565b5b50919050565b7f4e487b7100000000000000000000000000000000000000000000000000000000600052602260045260246000fd5b7f4e487b7100000000000000000000000000000000000000000000000000000000600052604160045260246000fd5b6000601f19601f8301169050919050565b6106968161056e565b81146106a157600080fd5b50565b6106ad816105a0565b81146106b857600080fd5b5056fea26469706673582212200b3aa602fa60686e764f43b363101236535b32b29ba5868c27c53820625d28e864736f6c63430008000033",
  "linkReferences": {},
  "deployedLinkReferences": {}
}